{
  "_format": "hh3-artifact-1",
  "contractName": "TruthRegistry",
  "sourceName": "contracts/TruthRegistry.sol",
  "abi": [
    {
      "anonymous": false,
      "inputs": [
        {
          "indexed": true,
          "internalType": "bytes32",
          "name": "fileHash",
          "type": "bytes32"
        },
        {
          "indexed": true,
          "internalType": "address",
          "name": "creator",
          "type": "address"
        },
        {
          "indexed": false,
          "internalType": "uint256",
          "name": "timestamp",
          "type": "uint256"
        }
      ],
      "name": "FileRegistered",
      "type": "event"
    },
    {
      "inputs": [
        {
          "internalType": "bytes32",
          "name": "",
          "type": "bytes32"
        }
      ],
      "name": "fileRegistry",
      "outputs": [
        {
          "internalType": "uint256",
          "name": "",
          "type": "uint256"
        }
      ],
      "stateMutability": "view",
      "type": "function"
    },
    {
      "inputs": [
        {
          "internalType": "bytes32",
          "name": "fileHash",
          "type": "bytes32"
        }
      ],
      "name": "isFileRegistered",
      "outputs": [
        {
          "internalType": "bool",
          "name": "",
          "type": "bool"
        }
      ],
      "stateMutability": "view",
      "type": "function"
    },
    {
      "inputs": [
        {
          "internalType": "bytes32",
          "name": "fileHash",
          "type": "bytes32"
        }
      ],
      "name": "registerFile",
      "outputs": [],
      "stateMutability": "nonpayable",
      "type": "function"
    }
  ],
  "bytecode": "0x608060405234801561000f575f80fd5b5061031b8061001d5f395ff3fe608060405234801561000f575f80fd5b506004361061003f575f3560e01c80632bf4c8c714610043578063b97b6dfa14610073578063c1190e40146100a3575b5f80fd5b61005d600480360381019061005891906101de565b6100bf565b60405161006a9190610221565b60405180910390f35b61008d600480360381019061008891906101de565b6100d3565b60405161009a9190610254565b60405180910390f35b6100bd60048036038101906100b891906101de565b6100ee565b005b5f602052805f5260405f205f915090505481565b5f805f808481526020019081526020015f2054119050919050565b5f805f8381526020019081526020015f205414610140576040517f08c379a0000000000000000000000000000000000000000000000000000000008152600401610137906102c7565b60405180910390fd5b425f808381526020019081526020015f20819055503373ffffffffffffffffffffffffffffffffffffffff16817f0152d5379b42d37b3e47ee20ebe4ca29514b9b95b0172d2bdbea91e3f596e3ec4260405161019c9190610221565b60405180910390a350565b5f80fd5b5f819050919050565b6101bd816101ab565b81146101c7575f80fd5b50565b5f813590506101d8816101b4565b92915050565b5f602082840312156101f3576101f26101a7565b5b5f610200848285016101ca565b91505092915050565b5f819050919050565b61021b81610209565b82525050565b5f6020820190506102345f830184610212565b92915050565b5f8115159050919050565b61024e8161023a565b82525050565b5f6020820190506102675f830184610245565b92915050565b5f82825260208201905092915050565b7f46696c6520616c726561647920726567697374657265640000000000000000005f82015250565b5f6102b160178361026d565b91506102bc8261027d565b602082019050919050565b5f6020820190508181035f8301526102de816102a5565b905091905056fea2646970667358221220fa5d526e5728ee2445ea5438beac7bda15fdd48bb289d5fe43df3506e95270bc64736f6c63430008140033",
  "linkReferences": {},
  "deployedLinkReferences": {},
  "immutableReferences": {},
  "inputSourceName": "project/contracts/TruthRegistry.sol",
  "buildInfoId": "solc-0_8_20-2682cb1b1cc37380111eb98c28f1d7ccfc90e5db"
}